:020000040800F2
:10000000000002205D03000859030008ED430008CA
:1000100059030008590300085903000800000000B4
:10002000000000000000000000000000590300086C
:10003000590300080000000059030008DD430008D0
:100040005903000859030008590300085903000820
:100050005903000859030008590300085903000810
:10006000590300085903000859030008AD3C000873
:10007000B93C0008A52B0008C53C0008D13C00088D
:1000800059030008B5320008590300085903000855
:1000900059030008590300085903000859030008D0
:1000A00059030008590300085903000859030008C0
:1000B000590300085903000859030008D932000801
:1000C00059030008E53200085903000859030008E5
:1000D0005903000859030008590300085903000890
:1000E00059030008590300080000000059030008E4
:1000F0005903000859030008590300085903000870
:10010000590300085903000859030008590300085F
:10011000590300085903000859030008590300084F
:10012000590300085903000859030008590300083F
:10013000590300085903000859030008590300082F
:1001400000000000000000000000000000000000AF
:10015000590300085903000859030008590300080F
:10016000F132000859030008590300085903000838
:1001700059030008590300085903000859030008EF
:1001800059030008590300085903000859030008DF
:1001900059030008590300085903000859030008CF
:1001A00059030008590300085903000859030008BF
:1001B000253A0008590300085903000859030008AC
:1001C000590300085903000859030008590300089F
:1001D000590300085903000859030008590300088F
:1001E000590300085903000859030008590300087F
:1001F000590300085903000859030008590300086F
:10020000590300085903000859030008590300085E
:10021000590300085903000859030008590300084E
:1002200059030008590300085903000800000000A2
:100230005903000859030008000000005903000892
:10024000590300085903000859030008590300081E
:10025000590300085903000859030008590300080E
:1002600059030008590300085903000859030008FE
:100270005903000859030008590300080000000052
:100280005903000859030008590300080000000042
:08029000000000005903000802
:1002980010B5054C237833B9044B13B10448AFF3B8
:1002A80000800123237010BD7800002400000000A6
:1002B80080B9000808B5034B1BB103490348AFF3E5
:1002C800008008BD000000007C00002480B9000800
:1002D80030B4194C0022194BD4F88810184841F44E
:1002E8007001184DC4F888101C68174944F00104BF
:1002F8001C601A611C68204018609A61DA611A62F1
:100308009A62DA621A635A639A63DA631A645A64FD
:10031800186820F4802018601A662B681940B1F11B
:10032800005F02D2094B01221A60034B4FF00062B2
:1003380030BC9A60704700BF00ED00E000440258EE
:100348007FEDF6EA0010005C0000FFFF0881005115
:10035800FEE700BF0D4B0E4A934206D00D4951F8F7
:10036800040B43F8040B9342F9D10B4B0B4A93420D
:1003780004D0002143F8041B9342FBD1FFF7A8FFE8
:100388000BF064F800F064F9FEE700BF00000024F9
:100398007800002498B9000878000024C0140024CC
:1003A800704700BF30B5027D83B00446013252B2B7
:1003B800012A027503DDFF23037503B030BD85688C
:1003C800811802EB82124123097B2A44094D41F02E
:1003D80040010190009503F06FF80028EDD0204609
:1003E80003F04EF80146204603B0BDE8304002F065
:1003F800E9BF00BFAD030008B5EEC00A08B5F1EECD
:1004080010FA08DDB1EE400A0AF06CFFF7EE007A48
:1004180037EEC00A08BD0AF065FFF7EE007A30EE45
:10042800670A08BD000000002DE9F04F2DED048B90
:1004380085B0804672480F46019201F089FD7148E7
:10044800002601F085FD704801F082FD6F4801F03B
:100458007FFD6F4801F07CFD6E4801F079FD6E4824
:1004680001F076FD6D4801F073FD6D4801F070FDF7
:100478006C4801F06DFD6C4801F06AFD6B4801F0B5
:1004880067FD6B4801F0A8FF6A4801F0A5FF6A48BC
:1004980000F01EFE694D334603E0072E8CBF08238B
:1004A8000023F1B264480136CC4304F007041C442D
:1004B80000F05EFE102E05EB040393F8F42340EAE7
:1004C800420083F8F403E8D15D4801F06DFDF2EED7
:1004D800046ADFED5C7A95EDAC7A95EDB36A95F830
:1004E8005D3227EE267ADFF860A126EE276A7F2B99
:1004F800DFF858919AF80010B7EEC77A95F86D3280
:10050800B7EEC66A08BF81F0010195EDBA8A7F2B64
:1005180099F8003085F8080408BF83F001038AF8C9
:1005280000109FED355B89F80030019B37EE057BA5
:1005380036EE056BF7EEC78BB7EEC69B002B54D093
:100548003B1F00270393A8F104030293BD00DDE9D4
:100558000246636804F1040B2B44D3ED007A68EE7D
:10056800A77AC3ED007AA9B199F8003003B327EE52
:10057800880AB7EE007A56F8043F44452B4437EE14
:10058800487AA7EE270A83ED000A1DD05C469AF840
:100598000010DEE727EE890AFFF72EFF636899F857
:1005A80000102B44D3ED007A21B120EE080AE0E7D1
:1005B80027EE890AB7EE007AB4EEC70AF1EE10FA10
:1005C80009DDB0EE480AD4E70137019BBB420CD0E5
:1005D8009AF80010BAE7BFEE007AB4EEC70AF1EE57
:1005E80010FAE2D5B1EE480AC3E705B0BDEC048BBA
:1005F800BDE8F08FAFF30080333333333333F33F49
:100608003C030024580300247403002490030024AE
:10061800AC030024C8030024E403002400040024DD
:100628001C0400243804002454040024700400240A
:10063800F002002400030024100300249800002482
:10064800D10000240000C842950000249400002432
:100658002DE9F041604C84B05F4800F0EBF820468B
:1006680000F090FA5D4E00235D4D5E4920463370E0
:1006780004F140082B7000F083FA04F118005A4F77
:1006880002F014FA3378002B73D02B78002B40F04B
:100698009480FF21626C04EB410140F6FE7CB2F8C5
:1006A8000130B1F85600C3F30B03604503EB0001BA
:1006B800C1F30B01A2F8031074D9DFED4C7A9FED5A
:1006C8004C7A43F48053F4EEC77AA2F80130F1EE85
:1006D80010FA6BDDFF23B2F8050004EB430340F684
:1006E800FE7EB3F856C0C0F30B03F4450CEB0300D1
:1006F80088BF43F48053C0F30B00A2F80530A2F87A
:10070800070094F95430002BFDDAD4F848C00023D0
:10071800A2641846C4F844C002E0B1F80310980077
:1007280001336044102BA0F8031002EB8301F4D1CD
:10073800002302EB83000CEB83010133B0F8440083
:10074800102BA1F84400F4D194F84C104FF0000C91
:100758004123284841F0400184F854C0CDE900788D
:1007680002F0AAFE78BB062003F0AEFE3378002B19
:100778008BD1297800298DD0626C04EB430140F6B7
:10078800FE7CB2F80130B1F85600C3F30B036045A4
:1007980003EB0001C1F30B01A2F803100FD9DFED41
:1007A800167A8CE7DFED117AA2F80130FCEEE77AD1
:1007B800CDED037A9DF80C308DE7FF23DCE7A2F836
:1007C8000130FF2387E70B4802F05AFE014609482B
:1007D80002F0F8FDC7E700BF980000249500002448
:1007E8009400002431040008AD0300080000000054
:1007F80000007F43D800002400017E4710B5094C53
:1008080000234FF40072084904F156006361236421
:100818000AF040FE2046054A0549BDE810400AF0A6
:100828005BBD00BF98000024C8B400080000002485
:10083800A90300082DE9F04704462DED028BAEB060
:1008480000F0AEF9204600F049FA204630210EAFFC
:1008580000F0ECF9C44A41F61E530FAD18AEADF8DE
:10086800143092E803000E9020468DF83C1003F0F7
:100878001E0100F0BDF903462046ADF8603000F0D7
:10088800F1F904F51670189901F08AFD9DF8151014
:10089800204600F0ADF903462046ADF8603000F080
:1008A800E1F904F51A70189901F07AFD17F8011B9F
:1008B800204600F09DF9034630461136ADF8183051
:1008C800069901F0AFFDBD42F0D11021204600F09D
:1008D8008FF9034615212046ADF81C3000F088F941
:1008E80003461421204604F11807ADF8203000F023
:1008F8007FF903461321204604F52976ADF8243004
:1009080000F076F9BDF824108446089B0822ADF85B
:1009180004C029A8ADF828C00DF15C08ADF8001096
:10092800079901F08DFD18A93846042305229FED8B
:100938008F8A01F0BFFDDFF844E20DF1400CBEE8FC
:100948000F00ACE80F009EE80F008CE80F0055F888
:10095800042F04213846D2B202F0CEF801462046D0
:10096800039100F07FF900233046F0EE480A03991E
:100978001A461C3601F0B0FAA845E8D104F56176AC
:100988000025E9B2384602F0ADF8014601352046A7
:10099800039100F067F93046039901F0B7FA042D86
:1009A80006F11C06EDD11B21204600F021F9034673
:1009B8001C212046A4F87832002700F019F90346D4
:1009C8001A212046A4F87A3204F1400500F010F903
:1009D80040F20123024604F51E70A4F88032A4F800
:1009E8007C2200F043FB09212046614E00F000F90B
:1009F8000B230CA9ADF8300004F13400ADF8323007
:100A080001F02EFB5B490DA80D9702F0DBFC06F107
:100A180084030D98FF22A3643946574B062784F8B0
:100A28005420E364C4E9100600E0666C0A1101F082
:100A38000F008B00013102EB82129BB22029B754C0
:100A480002EB8000D4E9116C0644A6F80130A6F840
:100A580003300CF80270A26C0244A2F80130A2F82C
:100A68000330E2D194F84E300B2B0FD0B4F84E205F
:100A7800012304F15000A4F85020A4F85230039048
:100A880002F07AF90398002102F060FA04F14C07A9
:100A980004F14E0A4FF0000817F8011B0126022343
:100AA8000BAA41F04001284600964FF00009039137
:100AB800ADF82C8002F0E6FC142003F0A7FB0399A4
:100AC80002230BAA28460096ADF82C8002F0DAFC27
:100AD800142003F09BFB4FF40050039902230BAA48
:100AE800ADF82C000096284602F0CCFC142003F048
:100AF8008DFB052343F2016C039900930BAA022393
:100B08002846ADF82CC002F0BDFCBA45C4D100217E
:100B1800204600F06DF803460BA904F13900ADF842
:100B28002C3001F039FA0F21204684F8376084F818
:100B3800389000F05DF8034604F135001BB2C3F3AA
:100B4800072284F8353084F8362002F015F904F1CC
:100B58002000032102F082F803F048FB2EB0BDEC20
:100B6800028BBDE8F08700BF08B700086F12033B8F
:100B78000000003010B7000800020B00C8B60008DB
:100B880000F04CB800F04EB8044B06221A7083F8F7
:100B9800412083F8842083F8C52070470000003086
:100BA80070B40E494FF4A0660D4A02240D4B0E4D49
:100BB800016040F2071142604FF487728360062398
:100BC800C5600A4D8684056280F8274001858285C4
:100BD800037480F82B3070BC704700BF0007050015
:100BE800010508050905070506050A0600010004B0
:100BF8001F2982B009D8084B03EB410213F81130C2
:100C0800507843EA002002B0704701230C2043EAE1
:100C1800002002B0704700BF1CB70008143001F074
:100C280031B900BF143001F029B900BF38B500F15F
:100C3800140504462DED028B284601F011F92846CB
:100C480001F01CF92846B0EE408A01F005F9D0ED14
:100C5800007AF8EE677A88EE277ABDEC028B84ED8D
:100C68000C7A38BD90ED0C0A704700BFF0B51A4DEC
:100C780091B000210446079505F100754FF44170C5
:100C8800002201230326012705F5407506910291EC
:100C980006A9ADF8240002A808953025CDE90C2353
:100CA800CDE90E23CDE90A6703F08AF840F601334F
:100CB8004FF07E56ADF80430019800F03FF803235A
:100CC800029A03A904F114000596CDE9035301F033
:100CD8008FF811B0F0BD00BF0402040438B5044613
:100CE8002DED028B03F080FB204600F049F8E01C54
:100CF80002F01AFC04F1270002F03EF804F1140592
:100D080004F12B0002F038F82046FFF7AFFF03F09C
:100D180035FA03F06BFA284601F0B0F82846B0EE31
:100D2800408A01F099F8D0ED007AF8EE677A88EEFB
:100D3800277ABDEC028B84ED0C7A38BD10B584B0EF
:100D480003460124ADF8040003A8ADF80C30ADF853
:100D58000E4002F011F8214603A802F0F7F82046E9
:100D680003F0B2FB03A8002102F0F0F8204603F0DC
:100D7800ABFB214603A802F0E9F804B010BD00BFA0
:100D88002DE9F043444C8BB0A063037823B10025D0
:100D980028460BB0BDE8F083404A0A230026012705
:100DA800626008220893202302A9201DC4E9026773
:100DB800C4E9042340264FF4C07700224FF40063AF
:100DC800C4E90667C4E908234FF4805600270222C5
:100DD8000723C4E90A67CDE9022304260322002376
:100DE8000827CDE90623CDE9046709F0C1FC0546CB
:100DF80000284CD14FF001084FF0100901260027B8
:100E080002A94FF480520190201DCDE902894FF0CC
:100E180002084FF01009CDE9046709F0D3FC6420FB
:100E280003F0CCFB02A94FF48052201DCDE90467E2
:100E3800CDE9028904264FF003084FF01009002776
:100E480009F0C0FC02A94FF48052201DCDE90467C7
:100E5800CDE9028909F0B6FC40F232234FF0010CCB
:100E6800042601931027019B02A94FF48052201DEC
:100E7800CDE904C3CDE9026709F0A4FC201D40F6C2
:100E8800060109F0BFFC28460BB0BDE8F083012538
:100E980028460BB0BDE8F083A80400244041005266
:100EA800694A2DE9F04315688FB015B10FB0BDE858
:100EB800F083664B01210C24002611600327D3F828
:100EC800D4204FF683784FF0020908A942F48052E3
:100ED8005F48C3F8D420D3F8D42002F4805200929B
:100EE800009AD3F8E02042F01002C3F8E020D3F8CB
:100EF800E02002F010020192019AD3F8E02042F0BB
:100F08004002C3F8E020D3F8E02002F04002029249
:100F1800029AD3F8E02042F00802C3F8E020D3F8A0
:100F2800E02002F008020392039AD3F8E02042F48A
:100F38008072C3F8E020D3F8E02002F480720492B3
:100F4800049AD3F8E02042F08002C3F8E020D3F8F6
:100F5800E02002F080020592059AD3F8E02042F0E2
:100F68002002C3F8E020D3F8E02002F02002069225
:100F7800069AD3F8E02042F00402C3F8E020D3F840
:100F8800E0300C9403F004030793079BCDE90A674C
:100F9800CDE9088905F078FA48F23712022308A942
:100FA8002C480C94DFF8C080CDE90A67CDE9082306
:100FB80005F06AFA4CF20372022308A926480C9439
:100FC800CDE90A67CDE9082305F05EFA40F2FF6231
:100FD800022308A921480C94CDE90A67CDE9082322
:100FE80005F052FA4FF60C72022308A91C480C941B
:100FF800CDE90A67CDE9082305F046FA4FF63F0226
:10100800022308A917480C94CDE90823CDE90A67FB
:1010180005F03AFAD8F83800013003F057FAD8F852
:1010280038300646581C03F059FA022207460323B3
:1010380008A930460C9408970B93CDE9092505F0CB
:1010480023FA0FB0BDE8F083A4040024004402583A
:101058000010025800180258000C025800200258CC
:10106800001C025800140258A804002470B5044655
:1010780002780025012663780A30A272E37226738B
:10108800657301F079FEA278E37804F10E00A2738B
:10109800E3732674657401F06FFE6379227904F1B5
:1010A8001200E37425756575A27401F065FE237A54
:1010B800B34200D870BDA27904F11600E379257611
:1010C8006576A275E375BDE8704001F055BE00BFB6
:1010D8002DE9F84300F10E0700F10A0400218146CA
:1010E800384601F033FF0121204601F02FFF01208F
:1010F80003F082F82046002101F028FF99F8093012
:101108009BB300260021384601F020FF012003F0A0
:1011180073F899F80830D3B1F5434FF00008EDB2F1
:1011280008F10103404699F809405FFA83F809EB92
:10113800800014FB08F4123005EBC40401F0F8FE3B
:10114800E4B24C44A07699F808304345E8D8012128
:101158003846013601F0FAFE012003F04DF899F8FF
:101168000930F6B2B6EBC30FCCDBBDE8F88300BF9D
:10117800437A027A13FB02F3B1EBC30FA8BF002135
:101188000844807E704700BF2DE9F04FDFF83C84AB
:1011980006460D46144608F114002DED028B89B061
:1011A80000AF02F0FDFED8F814305BB3D8F8183061
:1011B8004269002B0BBF022304234FF008094FF0AC
:1011C8001009FB61D8F804304BB3A100E946012AA5
:1011D80001F1070121F00701ADEB010D6846ADEB08
:1011E800010D694600F04A81022A00F0DB80002ADE
:1011F80074D022469847CD462437BD46BDEC028BB5
:10120800BDE8F08FD8F81830002BF5D002234FF046
:1012180008094269FB61D8F80430002BD5D1D8F809
:101228000030BA617B61002BE6D06B46E04808EEDF
:10123800103A02F0FDFE8646F869BA69022800F005
:1012480096816B46C7F810903969A3EBC4039D4695
:101258006300E946B3FBF0F3A9EBC40CC7F8189098
:1012680009EB830AB869E546ADEB010D0CEB830188
:10127800EB46F9603969C7F810A00AEB830AADEBB1
:10128800010DCBF80000F9680AEB8300E94601EB91
:101298008301CBF80C00386901EB8303C9F800C05F
:1012A800CBE9010AF868C9E90213C9F80400012A60
:1012B80000F0A083022A00F08682002A00F09081C4
:1012C8006208494658467B69984718EE103A243711
:1012D8009D46BD46BDEC028BBDE8F08F002C88D042
:1012E80098ED0B6A864606F1040CDFEDBB6A36F909
:1012F80022A00EF1080E07EE10AA3CF922A0023235
:1013080007EE90AAB8EEC77A9442F8EEE77A27EE8D
:10131800267A67EEA67A27EE067A67EE867A0EEDCB
:10132800027A4EED017AE2D8F96122469847A14E39
:10133800F9690020D8ED046A2B1D9FEDA87A9FED6E
:101348009E6ADFED9E5A22E0F4EEC67AF1EE10FABC
:10135800C0F2158547F6FE72D1ED017A45F82020D6
:1013680066EEA77AF4EEC77AF1EE10FA40F2FD8045
:10137800F4EEC67AF1EE10FAC0F2228547F6FE7254
:1013880043F820200230083184427FF634AFD1ED93
:10139800007A66EEA77AF4EEC77AF1EE10FAD3D89F
:1013A8003246D9E7002C3FF424AFD8ED0B4A8646E5
:1013B800002206F1040C9FED7C5B06EB820A0EF11D
:1013C800080E9AED006A0CEB820A02329AED007A56
:1013D800B8EEC66A9442B8EEC77AB7EEC66AB7EEF8
:1013E800C77A26EE056B27EE057BB7EEC66BB7EE20
:1013F800C77B26EE246A27EE247A0EED026A0EEDEC
:10140800017ADAD8F961224698476D4EF9690020C9
:10141800D8ED046A2B1D9FED717ADFF8B4C19FEDFA
:10142800666A20E0F4EEC67AF1EE10FAC0F2C084E3
:101438003246D1ED017A45F8202066EEA77AF4EE1F
:10144800C77AF1EE10FA40F28E80F4EEC67AF1EE29
:1014580010FAC0F2A584324643F820200230083141
:1014680084427FF6C8AED1ED007A66EEA77AF4EE34
:10147800C77AF1EE10FAD5D86246DAE7002C3FF4C5
:10148800B8AE06F1040CFD6198ED0B6A1D46834663
:1014980063464FF0000ADFED4B6AB4465CF82A2039
:1014A8000BF1080B53F82A600AF1020A82F40002D1
:1014B80086F4000E5445A2F5000207EE102AAEF598
:1014C800000207EE902AB8EEC77AF8EEE77A27EE20
:1014D800267A67EEA67A27EE067A67EE867A0BED0D
:1014E800027A4BED017AD9D82B46FD692246F9617B
:1014F8009847354EF9690020D8ED046A2B1D9FEDF9
:10150800377ADFF8D0C09FED2C6A1FE0F4EEC67A78
:10151800F1EE10FAC0F23C843246D1ED017A45F87A
:10152800202066EEA77AF4EEC77AF1EE10FA18D901
:10153800F4EEC67AF1EE10FAC0F21984324643F896
:1015480020200230083184427FF655AED1ED007A72
:1015580066EEA77AF4EEC77AF1EE10FAD6D86246AC
:10156800DBE76246EBE7624676E7324608E7A30028
:101578006008073323F00703ADEB030DEC46ADEB32
:10158800030DEA46ADEB090D0CEB8003C7F818C054
:10159800EB46ADEB090D0AEB80003B61E946CBE970
:1015A80000C3C9E900A082E6BC4E8D010000003EE0
:1015B800FC0400240280FFFF04FF7F3F00FEFF467B
:1015C8000082FF7F0000003482FF7F00E4040024D3
:1015D800007E00807E0080FF0000003804FF7FBF8F
:1015E800002C00F00083F969D8F82030022900F0B7
:1015F800378303EB8E0ADBF80C104FEA8E03C7F82B
:1016080000B006F1040C5FED0C5A7B60DBF8083083
:10161800D7F818E0FB600AF10403C7F818909B4656
:10162800D7F81090B9603D613CF9221036F92230A4
:1016380006EE901A3AF9221006EE103A98ED0B5A77
:1016480007EE101AF8EEE66AB8EEC66A3BF9221001
:10165800B8EEC77A530807EE901A66EEA56A26EE2A
:10166800256AF96827EE257A09EB8300F8EEE77A10
:101678000EEB830526EE056A01EB830127EE057A5A
:10168800023266EE856A67EEA57A85ED006A9442B5
:10169800C0ED006A81ED007A98ED0B7AB86867EEC4
:1016A800877A00EB8303C3ED007ABDD8D7F800B082
:1016B800D7F818903D69620849467B6958469847AB
:1016C800D8F8283079680022D8ED046A1944D9F886
:1016D80000E0D9F804C02B1D01F104088A461FED6B
:1016E800417AC7F81880BC4E9FEDBC6ADFEDBC5A42
:1016F800D7F81C8052E0F4EEC67AF1EE10FAC0F288
:10170800F88247F6FE7B0CEB010045F822B0D0EDDD
:10171800007A66EEA77AF4EEC77AF1EE10FA4CD9A1
:10172800F4EEC67AF1EE10FAC0F2EC8247F6FE70DB
:10173800B8F1020F43F822002CD0D9F80800084469
:10174800D0ED007A66EEA77AF4EEC77AF1EE10FAD9
:1017580037D9F4EEC67AF1EE10FAC0F2FF8247F6F6
:10176800FE7BD9F80C004AF822B00144D1ED007A8A
:1017780066EEA77AF4EEC77AF1EE10FA1FD9F4EE06
:10178800C67AF1EE10FAC0F2E18247F6FE71B86946
:1017980040F82210023294427FF697AD51080EEBC2
:1017A80081008900D0ED007A66EEA77AF4EEC77A58
:1017B800F1EE10FA9FD8B346A5E73046B8E73146B0
:1017C800E5E7B346CDE7002C00F00D82FA69D8F8BA
:1017D8002030022A00F00E8203EB8E0ADBF8083074
:1017E800C7F800B006F1040CFB604FEA8E030AF15B
:1017F8000402D7F818E07B60DBF80C309346C7F892
:101808001890BB600023D7F810903D619FED704B96
:1018180056F823105A08D8ED0B2A07EE901A5CF8F0
:10182800231009EB8200B8EEE73A07EE901A5AF84F
:1018380023100EEB8205B8EEE75A07EE901A0BEB71
:101848008301B7EEC33A0233B8EEE76A91ED007A46
:10185800B7EEC55AF968B8EEC77A9C42B7EEC66AC1
:1018680001EB820123EE043B25EE045B26EE046BBC
:10187800B7EEC77AB7EEC33BB7EEC55B27EE047B7E
:10188800B7EEC66B23EE223A25EE225A26EE226ADE
:10189800B7EEC77B85ED003A80ED005A81ED006A0E
:1018A800D8ED0B7AB86827EE277A00EB820282ED32
:1018B800007AADD8D7F800B0D7F818903D695846E7
:1018C800620849467B699847D8F828307968002229
:1018D800D8ED046A19442B1DD9F800C08B46043191
:1018E800D9F80480C7F814B09FED417AD7F81CB036
:1018F800DFF8F4E09FED396A3A4EB961FB6150E0D8
:10190800F4EEC67AF1EE10FAC0F21282304608EB15
:10191800010A45F82200DAED007A66EEA77AF4EEBD
:10192800C77AF1EE10FA4BD9F4EEC67AF1EE10FA56
:10193800C0F205823046FB69BBF1020F43F8220072
:101948002BD0D9F808000844D0ED007A66EEA77AC3
:10195800F4EEC77AF1EE10FA36D9F4EEC67AF1EE63
:1019680010FAC0F2DE813046D9F80CA07B695144E8
:1019780043F82200D1ED007A66EEA77AF4EEC77A32
:10198800F1EE10FA1ED9F4EEC67AF1EE10FAC0F2B2
:10199800C1813146BB6943F82210023294427FF676
:1019A80094AC51080CEB81008900D0ED007A66EE0A
:1019B800A77AF4EEC77AF1EE10FAA1D87046A6E736
:1019C8007046B8E77146E5E77046CDE7AFF30080AB
:1019D800BC4E8D010000003E0280FFFF04FF7F3FE8
:1019E80000FEFF460082FF7F007E0080000000347A
:1019F80004FF7FBF002C00F0F680D8F820304FEAB3
:101A08008E02BD60002103EB8E0E06F1040C1FED63
:101A1800096A0EF104003D69D7F818A0FA60C7F802
:101A2800189056F821204FEA51095CF8213082F4C9
:101A38000002D8ED0B6A83F40003A2F50002A3F5B7
:101A4800000307EE102A05EB890207EE903A0AEB2D
:101A58008903B8EEC77A4FEA8909F8EEE77A27EEE4
:101A6800067A67EE867A27EE267A67EEA67A83EDFF
:101A7800007AFB69C2ED007A022B27D05EF821209C
:101A880050F8213082F4000283F40003A2F500022A
:101A9800A3F5000307EE902ADBF80820B8EEE77AF2
:101AA80007EE903A4A44DBF80C30F8EEE77A27EE76
:101AB800067A4B4467EE867A27EE267A82ED007A1C
:101AC80098ED0B7A67EE877AC3ED007A02318C4283
:101AD800A7D8D7F81890584662087B694946BD6868
:101AE8009847D8F82830F9680022D8ED046A1944D4
:101AF8002B1DD9F800C08B460431D9F80480C7F8EB
:101B080014B01FED457AD7F81CB0DFF8E0E29FED7E
:101B1800B46AB44EB961FB6150E0F4EEC67AF1EEF6
:101B280010FAC0F2CA80304608EB010A45F82200D4
:101B3800DAED007A66EEA77AF4EEC77AF1EE10FADB
:101B48004BD9F4EEC67AF1EE10FAC0F2C4803046F2
:101B5800FB69BBF1020F43F822002BD0D9F808002B
:101B68000844D0ED007A66EEA77AF4EEC77AF1EE73
:101B780010FA36D9F4EEC67AF1EE10FAC0F2B28055
:101B88003046D9F80CA07B69514443F82200D1EDC6
:101B9800007A66EEA77AF4EEC77AF1EE10FA1ED94B
:101BA800F4EEC67AF1EE10FAC0F28E803146BB69C7
:101BB80043F82210023294427FF687AB51080CEBAF
:101BC80081008900D0ED007A66EEA77AF4EEC77A34
:101BD800F1EE10FAA1D87046A6E77046B8E771464C
:101BE800E5E77046CDE72246494658467B6998475F
:101BF800FFF76BBB9FED785BD8ED0B4A002306F12E
:101C0800040CB869D7F810A006EB83020CEB83012B
:101C180092ED006A5A0891ED007A0233B8EEC66A6E
:101C280000EB8201B8EEC77A0AEB82029C42B7EE5B
:101C3800C66AB7EEC77A26EE056B27EE057BB7EEC8
:101C4800C66BB7EEC77B26EE246A27EE247A81EDB1
:101C5800006A82ED007AD7D84FEA8E037B602EE6C1
:101C680098ED0B6A06F1040CDFED5F6AB869D7F8E6
:101C780010A036F922303CF9221007EE103A53082A
:101C880007EE901A0232B8EEC77A00EB8301F8EE3D
:101C9800E77A0AEB8303944227EE267A67EEA67A60
:101CA80027EE067A67EE867A81ED007AC3ED007A30
:101CB800DFD84FEA8E037B60FDE4F0EE675AFEEE54
:101CC800E45A15EE900A2FE7F0EE675AFEEEE45A52
:101CD80015EE901A6BE7F0EE675AFEEEE45A15EE31
:101CE800900A35E7F0EE675AFEEEE45A15EE900AD0
:101CF80047E767EEA57AFDEEE77A17EE900A0FFA46
:101D080080FB00E567EEA57AFDEEE77A17EE900A0C
:101D180000B20DE5F0EE675AFEEEE05A15EE901AA5
:101D280038E6F0EE675AFEEEE05A15EE900A1BE62A
:101D3800F0EE675AFEEEE05A15EE900AE7E5F0EE8F
:101D4800675AFEEEE05A15EE900AF4E567EEA57ABA
:101D5800FDEEE77A17EE901A09B218E567EEA57A54
:101D6800FDEEE77A17EE900A0FFA80FBF9E4F0EE41
:101D7800675AFEEEE45A15EE902AFFF7E0BB67EECD
:101D8800A57AFDEEE77A17EE902A12B2FFF7E4BAC9
:101D9800F0EE675AFEEEE45A15EE902AFFF7BDBB47
:101DA800F0EE675AFEEEE05A15EE902AFFF754BBA4
:101DB800F0EE675AFEEEE05A15EE902AFFF739BBAF
:101DC80067EEA57AFDEEE77A17EE902A12B2FFF7D2
:101DD800D7BA00BFAFF30080BC4E8D010000003EB3
:101DE80004FF7F3F82FF7F00000000387E0080FFF5
:101DF80070B5164C154684B0046004F1080601ABB2
:101E080007C986E80700D4ED047AF5EEC07A83E8BE
:101E18000700F1EE10FA15DDF7EE006A86EEA77AF4
:101E280084ED0B7A75B1204640F8145F02F0B8F8DB
:101E38000346074A00201969064BE160E2616362C4
:101E480004B070BD012004B070BD00BFE4040024DC
:101E5800082100300801003000680830704700BFD2
:101E6800B1F5806F03680A4628BF4FF48062B1F568
:101E7800806F9A6094BF002001207047006814307A
:101E880002F0C4B870B5046882B00D46A3694BB1BE
:101E9800A3680026A26A04F11800216A9B00009634
:101EA80002F080F8A36804F11400064E626A9B00F1
:101EB800E169009602F076F80020C4E9005002B00B
:101EC80070BD00BF91110008024B0022C3E9052232
:101ED800704700BFE4040024B6EE007A016060EEAB
:101EE800200A0276F7EE007A437680ED020A60EE69
:101EF800870AC0ED047A87EEA07A10B40024C46083
:101F080044615DF8044B80ED017A7047DFED0F7A8C
:101F1800B6EE007AF7EE006A4FF0804260EE277A5C
:101F28004FF4807380ED057A016067EE877A80ED63
:101F3800020A0261038386EEA77A10B40024C46003
:101F48005DF8044B80ED017A704700BF6F12033BC8
:101F58000268037E128807EE902AFBEEC87A1BB14E
:101F6800B7EE007A77EE677AD0ED056A90ED047ADD
:101F780077EEE67A437E67EE877A0BB1F1EE677A01
:101F880090ED030A90ED017A77EEC07AA7EE270A62
:101F980080ED030A704700BF098800220180C0F85D
:101FA800022000F0E9BE00BF10B543790446037172
:101FB80000F0BEFF00280CBF01230023637104D189
:101FC8002079B0FA80F0400910BD002010BD00BF94
:101FD800704700BF2DE9F041DFF8808082B0B0245F
:101FE8001C4E1D4D002130468DF8074001340F4628
:101FF80000F0ACFF01220DF107012846E4B202F01F
:1020080047F8394630468DF8077000F09FFF0122E7
:102018000DF10701284602F03BF8102339463046F7
:102028008DF8073000F092FF01220DF107012846D4
:1020380002F02EF80121304600F088FF4146802248
:10204800284602F025F8B82C08F18008CAD102B059
:10205800BDE8F0811809002414090024140500249F
:102068002DE9F0470D46C34E012482B035F8023BF6
:102078008146DFF810833046BF4F4FF0200A338087
:10208800B47000F079FE2B884046002588F802409D
:10209800A8F8003000F070FE384601F0CDFF294660
:1020A800404600F053FF0A2002F00EFA214640464F
:1020B80000F04CFF0A2002F007FAAE23304629460A
:1020C8008DF8073000F042FF224638460DF107012F
:1020D80001F0DEFF304629468DF807A000F036FFF4
:1020E80022460DF10701384601F0D2FF3046294655
:1020F8008DF8075000F02AFF22460DF107013846F7
:1021080001F0C6FFB023294630468DF8073000F0AD
:102118001DFF22460DF10701384601F0B9FFC8231B
:10212800294630468DF8073000F010FF22460DF1A1
:102138000701384601F0ACFF294630468DF80750B4
:1021480000F004FF22460DF10701384601F0A0FF18
:102158001023294630468DF8073000F0F7FE224656
:102168000DF10701384601F093FF40232946304618
:102178008DF8073000F0EAFE22460DF107013846D7
:1021880001F086FF8123294630468DF8073000F09C
:10219800DDFE22460DF10701384601F079FFFF23E5
:1021A800294630468DF8073000F0D0FE22460DF162
:1021B8000701384601F06CFFA123294630468DF807
:1021C800073000F0C3FE22460DF10701384601F042
:1021D8005FFFA623294630468DF8073000F0B6FE8B
:1021E80022460DF10701384601F052FFA82329467F
:1021F80030468DF8073000F0A9FE22460DF10701A0
:10220800384601F045FF3F23294630468DF8073010
:1022180000F09CFE22460DF10701384601F038FF18
:10222800A423294630468DF8073000F08FFE224659
:102238000DF10701384601F02BFFD323294630461C
:102248008DF8073000F082FE22460DF1070138466E
:1022580001F01EFF294630468DF8075000F076FE43
:1022680022460DF10701384601F012FFD523294611
:1022780030468DF8073000F069FE22460DF107015F
:10228800384601F005FFF023294630468DF807301F
:1022980000F05CFE22460DF10701384601F0F8FE19
:1022A800D923294630468DF8073000F04FFE2246E4
:1022B8000DF10701384601F0EBFE2223294630468E
:1022C8008DF8073000F042FE22460DF1070138462E
:1022D80001F0DEFEDA23294630468DF8073000F09B
:1022E80035FE22460DF10701384601F0D1FE1223D2
:1022F800294630468DF8073000F028FE22460DF1B9
:102308000701384601F0C4FEDB23294630468DF824
:10231800073000F01BFE22460DF10701384601F098
:10232800B7FE294630468DF807A000F00FFE22467A
:102338000DF10701384601F0ABFEAF2330462946C0
:102348008DF8073000F002FE22460DF107013846ED
:1023580001F09EFE29464FF48062084809F0A8F86B
:102368004846FFF737FE064B1D605C7102B0BDE8BA
:10237800F08700BF1809002414090024140500245C
:102388001C09002424090024024A0349034808F0D0
:10239800A3BF00BF00000024D91F000814090024AF
:1023A800B7EE007A01220346C7EE007A70B4002621
:1023B80083B0C1F307250024ADF80410C66041704E
:1023C80010449D70DC701A709A809A71C3ED027A7D
:1023D80003B070BC00F0D0BC38B5447905468379A9
:1023E8000130640064B2B3B100F0A2FDB0FA80F32A
:1023F8005B092343DBB2A3F17F026B71012A0ED97B
:10240800FF2B07D1D5ED037A95ED027A77EE877A1F
:10241800C5ED037A38BD00F08BFD43B2E9E7002330
:10242800EB6038BD82B000230322ADF80410BDF87C
:102438000410827001800374C37002B0704700BF3B
:1024480070B483B00325082A06ACADF80410857073
:10245800114634F8046B28BF0821ADF80030042A6F
:10246800BDF804302488BDF8005003804FF0000305
:102478000681858084810174C37008D8022A10D827
:1024880002D10122C371827103B070BC704701226E
:10249800C371C372C37382718272827303B070BCDA
:1024A80070470122C371C3728271827203B070BC1B
:1024B800704700BF2DE9F04FE04F0025E04C8FB08A
:1024C80007F13806037042608446A4F8095196461D
:1024D80003950695BD61C4F8FD50C4F80151C4F8D0
:1024E8000551C4F82451C4E94A76C7E90055C7E93B
:1024F8000255C7E90455C4E94355C4E94555C4E93B
:102508004755CDE90455CDE90755CDE90955CDE93C
:102518000B5584F8FC204368002B00F06B810E46B5
:102528000868A0464968F368B2683D80A8E80F00CB
:10253800337C88F80030337C84F8FD30DCF80430D4
:10254800012B40F2578133467D8053F8118F58682C
:102558009968DA68C4F81180C4F81500C4F819102D
:10256800C4F81D201B7C84F8213096F8213084F8AB
:10257800FE30DCF80430022B40F23C813346BD804B
:1025880053F8228F58689968DA68C4F82280C4F82A
:102598002600C4F82A10C4F82E201B7C84F8323098
:1025A80096F8323084F8FF30DCF80430032B40F220
:1025B80021813346FD8053F8338F58689968DA686B
:1025C800C4F83380C4F83700C4F83B10C4F83F207F
:1025D8001B7C84F8433096F8433084F80031DCF8EB
:1025E8000430042B40F20681B14604F144083D81D1
:1025F80059F8440FD9F80C30D9F80410D9F8082044
:10260800A8E80F0099F8103088F8003096F8543090
:1026180084F80131DCF80430052B40F2EB803346B6
:102628007D8153F8558F58689968DA68C4F85580E1
:10263800C4F85900C4F85D10C4F861201B7C84F804
:10264800653096F8653084F80231DCF80430062BE2
:1026580040F2D0803346BD8153F8668F5868996838
:10266800DA68C4F86680C4F86A00C4F86E10C4F862
:1026780072201B7C84F8763096F8763084F8033123
:10268800DCF80430072B40F2B5803346FD8153F85F
:10269800778F58689968DA68C4F87780C4F87B003F
:1026A800C4F87F10C4F883201B7C84F8873096F820
:1026B800873084F80431DCF80430082B40F29A8023
:1026C800B14604F188083D8259F8880FD9F80C30D2
:1026D800D9F80410D9F80820A8E80F0099F81030A4
:1026E80088F8003096F8983084F80531DCF8043022
:1026F800092B7FD9334608F101054FF0000A53F83A
:10270800998FA7F812A058689968DA68C4F8998070
:102718006860A960EA601B7C2B7496F8A93084F87D
:102728000631DCF804300A2B64D93346A7F814A024
:1027380053F8AA8F58689968DA68C4F8AA80C5F867
:102748001500C5F81910C5F81D201B7C85F8213027
:1027580096F8BA3084F80731DCF804300B2B49D9E5
:102768003346A7F816A053F8BB8F58689968DA68FB
:10277800C4F8BB80C5F82600C5F82A10C5F82E2075
:102788001B7C85F8323096F8CB3084F80831DCF8B9
:1027980004300C2B2ED9B14605F13308A7F818A040
:1027A80059F8CC0FD9F80C30D9F80410D9F808200A
:1027B800A8E80F0099F8103088F8003096F8DC3057
:1027C80084F80931DCF804300D2B13D93346A7F807
:1027D8001AA053F8DD7F58689968DA68C4F8DD7084
:1027E800A864E9642A651B7C85F8543096F8ED30B6
:1027F80084F80A315FFA8EF1124D4FF480209CF86C
:10280800002000230826C4F848110121C4F83051DB
:102818004FF48075C4F834010320C4F8383184F8C3
:102828004C31A4F84451C4F85C01C4E95533C4E9F7
:102838005833C4E94F16AAB106E000BF084100307A
:102848002809002400200240013A84F86811C4E9EC
:102858005D31082A08D8DFE802F083888D92979CBA
:10286800A1A7AE0084F86821804802F0E9FA03467F
:1028780008B1FFBEFEE703A97C48039302F03CFCC5
:102888000546002840F0EB8040F2FF730222042046
:10289800002184F80C52CDE9082394F8FC30CDE9E6
:1028A8000A01002B00F0D8800627DFF8F8B1DFF81E
:1028B800F8A121E0022B00F0A980012B40F0B280A2
:1028C80099F80130012B00F0C180002B0CBF534652
:1028D800002306A965480693079701F0D5FE00284E
:1028E80040F0B280013594F8FC30EDB2AB4240F2D2
:1028F800B3805F4B53F825702EB206EB061604EB37
:102908000609484600F038FA05EB051323441B7CFA
:10291800042B00F39F80022B00F39A8052D0621997
:10292800002182F8EE10002B50D1A35D002BC1D1FD
:1029380099F80130062B00F08380072B7ED0022BFC
:102948007AD0032B76D0002B7CD0012B00F0898025
:10295800042B00F08880052B464B18BF0023B8E7EE
:1029680003234022C4E95B327EE707236022C4E9DF
:102978005B3279E70F238022C4E95B3274E71F23B7
:10298800A022C4E95B326FE73F23C022C4E95B326F
:102998006AE77F23E022C4E95B3265E7FF234FF44F
:1029A8008072C4E95B325FE740F2FF134FF4907224
:1029B800C4E95B3258E740F2FF334FF4A072C4E930
:1029C8005B3251E70123621982F8EE306319012165
:1029D80093F8EE2084F80C12002AA6D006F1040819
:1029E8001A460023009701962F46A0441D46164616
:1029F8004046013500F0C0F996F8EE3008F10408B9
:102A0800AB42F5DC3D46DDE900768EE799F801300A
:102A1800042B0DD0052B09D033B1012B164B18BF51
:102A2800002356E7002354E7144B52E7144B50E7B2
:102A3800144B4EE7144B4CE7144B4AE7144B48E74A
:102A4800144B46E7144B44E7FFBEFEE75B4640E7FE
:102A58000223B8E70323B6E70FB0BDE8F08FFFBE47
:102A6800FEE70E4B35E70E4B33E700BF580A00244C
:102A78005CB700080000B84F0008302E0004002A98
:102A8800000180211000C0100080F03E0040C03AD4
:102A98008000501D0800900C0000214300005247A0
:102AA8000000844B2000F0140002B02510B50B4C38
:102AB80040F2FF724FF0011104F5987002F0CAFA63
:102AC80094F80C3294F8FC2003B15200D4F8281181
:102AD8000348BDE8104002F02BB800BF28090024C5
:102AE800580A0024034B0D29D3F8280198BF00EB9E
:102AF8004100704728090024044B0D29D3F82C0104
:102B080098BF00EB011000EB420070472809002431
:102B18001E4B02689A4200D070471D4B4FF48061EB
:102B2800D3F8D82070B542F020021A4C0546092087
:102B3800C4F8A4114FF40061C4F8980182B0C3F836
:102B4800D82004F5CA76D3F8D8204FF40053124899
:102B580002F02002C4F8A811C4F8AC314FF4807117
:102B68000023C4F8940101923046019AC4F8B011C8
:102B7800C4E96733C4E96D3302F096FD08B1FFBEBE
:102B8800FEE7EE64C4F8CC5102B070BD00200240EC
:102B9800004402582809002440000240014803F07C
:102BA80013B900BFBC0A002402682DE9F84F294B6D
:102BB8009A4201D0BDE8F88FDFF89C9099F8FC3074
:102BC800002BF7D0002409F1040609F5867509F1F0
:102BD800FC07A04616E05FFA83FA03F0010117F834
:102BE8000FBC304600F0B2F9301DBBF1010FCAF33B
:102BF800400122D899F8FC30013411360235A2B2CE
:102C08009342D7D917F8012F002AF5D0D9F82821EF
:102C18000021D9F82C3132F814008A462A7803EBBF
:102C2800041323F812002B8801339BB22B803A78C7
:102C38009A42D0D8A5F80080D1E700F087F9BBF117
:102C4800020F06F10800CAF38001D3D000F07EF924
:102C5800D0E700BF002002402809002470B5184DB5
:102C68008AB00C462B7E68619BB1002002210026A9
:102C7800002200230496CDE90001CDE90223C4B166
:102C8800032C16D004F0FD03012B0AD06C760AB091
:102C980070BD0C4B28462B6002F068FB01232B7695
:102CA800E3E710226946064802F076FB6C760AB024
:102CB80070BD00226946024802F06EFBE2E700BFE1
:102CC800380B002400740040284B02689A4200D058
:102CD8007047274B0020D3F8E81030B541F0005179
:102CE800244C89B00325627EC3F8E810D3F8E810B5
:102CF80001F0005101910199D3F8E01041F0010170
:102D0800C3F8E010D3F8E030049503F00103059010
:102D18000293029B3AB1AA4205D002F0FD02012AB1
:102D280013D009B030BD65690235284601F0CEFBE5
:102D3800034628461D4601F0D1FB034603A9284651
:102D4800039303F0A1FB627EE7E76469043420463D
:102D580001F0BCFB034620461C4601F0BFFB0346BE
:102D680003A92046039303F08FFBDAE700740040C1
:102D780000440258380B002430B583788FB00446DD
:102D8800022B37D0032B33D0012B31D000230A93E9
:102D9800E378012B2AD0022B28D000230B930023A1
:102DA80020460C9301F092FB0546204601F096FB65
:102DB80023780990082B13D8DFE803F01F32455811
:102DC8006B7E91A40500594BD3F8E02042F4807241
:102DD800C3F8E020D3F8E03003F480730893089B2D
:102DE800284609A903F050FB0FB030BD0B93D6E776
:102DF8000A93CDE711230A93CAE74C4B284609A941
:102E0800D3F8E02042F00102C3F8E020D3F8E03024
:102E180003F001030093009B03F036FB0FB030BDB5
:102E2800424B284609A9D3F8E02042F00202C3F831
:102E3800E020D3F8E03003F002030193019B03F094
:102E480023FB0FB030BD394B284609A9D3F8E02041
:102E580042F00402C3F8E020D3F8E03003F00403A2
:102E68000293029B03F010FB0FB030BD2F4B284696
:102E780009A9D3F8E02042F00802C3F8E020D3F80B
:102E8800E03003F008030393039B03F0FDFA0FB04F
:102E980030BD264B284609A9D3F8E02042F010029D
:102EA800C3F8E020D3F8E03003F010030493049B48
:102EB80003F0EAFA0FB030BD1C4B284609A9D3F835
:102EC800E02042F02002C3F8E020D3F8E03003F01D
:102ED80020030593059B03F0D7FA0FB030BD134BC1
:102EE800284609A9D3F8E02042F04002C3F8E020C0
:102EF800D3F8E03003F040030693069B03F0C4FACE
:102F08000FB030BD094B284609A9D3F8E02042F09C
:102F18008002C3F8E020D3F8E03003F08003079381
:102F2800079B03F0B1FA0FB030BD00BF0044025850
:102F380038B5054601F0CAFA0446284601F0CEFA2B
:102F480001462046BDE8384003F090BC70B50646FF
:102F58000D4601F0BBFA0446304601F0BFFA2A1EBE
:102F68000146204618BF0122BDE8704003F084BC2A
:102F78002DE9F04B044688469346994600F18407AC
:102F8800384604F0B7FC2028FAD12368244A012BDC
:102F9800E26006D0022B40D0002B3BD00120BDE8D8
:102FA800F08B24232361002540214FF4806204F133
:102FB8000C0625633046E261C4E90515C4E90855E5
:102FC800C4E90A55C4E90E5502F06EFB054608B17E
:102FD800FFBEFEE794F900C04FEA4801C4F8BC60A0
:102FE8003846089E4B46676489B20E4C5A46DFF84D
:102FF8003C800D4F2660099E88F800C03E6003F0B3
:103008001FFE0028CBD0FF23012025603D6088F8F3
:103018000030C4E722232361C5E74A232361C2E7BE
:10302800A0000240540B0024980B0024940B0024A9
:1030380070B5122286B00023CDE9022302680493FA
:10304800032A01D804230593061D841D304601F088
:103058003DFA0546304601F041FA034601A92846E3
:10306800019303F011FA204601F030FA0346204696
:103078001C4601F033FA01A903462046019303F0E8
:1030880003FA06B070BD00BF634A0368934210B5E7
:103098008CB028D0614A934258D0614A934200F0DC
:1030A8009480604A934201D00CB010BD5E4C5F48DA
:1030B800D4F8E03043F00203C4F8E030D4F8E0304C
:1030C80003F002030A930A9BFFF7B2FFD4F8F43027
:1030D80043F08003C4F8F430D4F8F43003F08003EC
:1030E8000B930B9BE0E7504C5148D4F8E03043F089
:1030F8000203C4F8E030D4F8E03003F0020301938F
:10310800019BFFF795FFD4F8E83000221F2043F415
:1031180000131146C4F8E830D4F8E83003F400137B
:103128000293029BD4F8D83043F00103C4F8D83096
:10313800D4F8D83003F001030393039B02F052F84C
:103148001F200CB0BDE8104002F086B8364C394854
:10315800D4F8E03043F08003C4F8E030D4F8E0302D
:1031680003F080030493049BD4F8E03043F0020397
:10317800C4F8E030D4F8E03003F002030593059B6F
:10318800FFF756FFD4F8E8300022212043F48003EB
:103198001146C4F8E830D4F8E83003F48003069305
:1031A800069BD4F8D83043F00103C4F8D830D4F8DB
:1031B800D83003F001030793079B02F013F821208E
:1031C8000CB0BDE8104002F047B81B48FFF730FFCD
:1031D800154B00224820D3F8E840114644F4000477
:1031E800C3F8E840D3F8E84004F400040894089CC5
:1031F800D3F8D84044F00104C3F8D840D3F8D83005
:1032080003F001030993099B01F0ECFF48200CB07F
:10321800BDE8104002F020B80054004000580040BB
:10322800005C0040001C0058004402580C0E0024AA
:103238009C0B00246C0C00243C0D00242DE9F04369
:1032480087B00024174D01AF01940394AC46ADF844
:1032580004403E46ADF80C400494B64602940FCFA5
:10326800019405F11407B4602835ADF80440ADF8B1
:103278000C40ACE80F000FCECCF800404FF0FF0C2C
:10328800019403940FC7084B3C6083F800C0ADF865
:103298000440ADF80C40BEE80F000FC52C6007B025
:1032A800BDE8F083580B0024940B0024064B1A78D1
:1032B800120600D570471878D022044B40B202FBA2
:1032C80000300C3002F080BD940B00249C0B0024CD
:1032D800014803F06FBD00BF200C0024014803F033
:1032E80069BD00BFF00C0024014803F063BD00BFB6
:1032F800C00D0024134AFF2170B5136882B0124C28
:10330800217023B100211148116000689847237883
:103318001B0613D50E4C0F4D04F13C066268284677
:10332800D03542B1D4E90331CDE900312389218870
:10333800FFF71EFE20B11434B442EFD102B070BDC5
:103348006060FBE7540B0024940B0024980B0024C6
:10335800580B00249C0B002470B582B0144C03F069
:1033680041FB144AFF21136821702BB10025124834
:10337800012100681560984723781B0613D50F4C68
:103388000F4D04F13C0662682846D03542B1D4E9B5
:103398000331CDE9003123892188FFF7E9FD20B108
:1033A8001434B442EFD102B070BD6060FBE700BFD7
:1033B800940B0024540B0024980B0024580B002471
:1033C8009C0B0024F0B50C68D025284E85B005FB71
:1033D80004F5032C06EB0507076028DC244B0DF1E8
:1033E800100C07C987E807000FCB0CE90F00BB6872
:1033F8000CEB8402012B52F8102CC7F8842030D033
:10340800022B2AD02BB305F18400D02300220121FE
:1034180003FB04633518C3E923212846C3F8A42015
:10342800C3E92522C3E9272203F0DCFA10B1012001
:1034380005B0F0BD0146284604F060FA0028F6D130
:103448000146284604F086FA003818BF012005B066
:10345800F0BD084BC7F88830D5E7074BC7F8883068
:10346800D1E7064BC7F88830CDE700BF9C0B002496
:10347800E8B600088A62E0301A0980103211D020BC
:103488000068704770B5056884B00C468435089E9E
:103498002846CDE9022304F02DFA2028DDE902238D
:1034A800F6D161002846009689B203F0EFFA003899
:1034B80018BF012004B070BD00682DE9F041046810
:1034C80086B0032CDDE90C8E25D0154D2D782D0600
:1034D8000BD404EB8400134C1E46002304EB800439
:1034E80003936068019328B1FEE706B0BDE8F04198
:1034F800FFF73EBD01ADADF80C60ADF8041006460F
:103508000292CDF810800FCD0FC43046C4F800E009
:1035180006B0BDE8F0810126304606B0BDE8F0816E
:10352800940B0024580B00242DE9F04FA44C0346BB
:10353800ABB0204623655F7893F8008004F0B8FBB1
:10354800E8B9012F4FF001059E49034614BF4FF417
:1035580080124FF40002E060A560C4E9001592FAF9
:10356800A2F2B2FA82F24FF48076E0612046013A84
:103578002362C4E9042604F02FFB034618B1012096
:103588002BB0BDE8F08F4FF0660C41F28832204630
:103598000EA91496179313931B93CDF838C0CDE951
:1035A8001533CDE9193304F0A1FB0028E7D199239D
:1035B80041F288320EA920460E9304F097FB0028AA
:1035C800DDD14FF0000B4FF0010C4FF0050A4FF022
:1035D8008079249008AA21901CA9299041F2883367
:1035E800CDF870A0CDF89490CDE908BC4FF0100B41
:1035F8004FF0010CCDE90ABC4FF0000B4FF4800CE2
:10360800CDE92260CDE927002046CDE90CBC04F0C5
:10361800D9FC0028B3D1ADF808001390CDE91460A7
:10362800CDE91609CDE91850CDE91A00002F00F0B0
:10363800CB80F023ADF80830C02341F288320EA9C0
:103648005F480E9304F052FB002898D141F288326B
:103658005B4802A904F0B4FB044600288FD1002679
:1036680001274FF480754FF080794FF0000A4FF42E
:10367800800B219441F28833299408AA1CA9504848
:103688002295CDF89490CDE90867CDE9234410261A
:103698000127CDE927440524CDE90A671C94CDE923
:1036A8000CAB04F08FFC00287FF469AF01240623DB
:1036B8008DF8070041F2883213901CA91B902190C5
:1036C80029900E941C93CDE91450CDE91609CDE943
:1036D8001900CDE92250CDE92400CDE9270038486A
:1036E80004F004FB00287FF44AAF102601270520C8
:1036F80041F2883308AA1CA91C903148CDF894904F
:10370800CDE90A6702260227CDE90CABCDE90867A7
:1037180004F058FC00287FF432AF41F288320EA939
:10372800274804F0E3FA00287FF429AF402341F248
:1037380088320DF1070122488DF8073004F040FB6C
:1037480000287FF41CAF10260127052002AA41F2A9
:1037580088330EA90E901A48CDF85C90CDE904671D
:1037680040264027CDE906ABCDE9026704F02AFCE4
:10377800064600287FF403AF2295002521960520F0
:10378800299601271C9008AA41F288331CA90C48E5
:10379800CDF89490CDE92366CDE927660126CDE9D9
:1037A80008561026CDE90CABCDE90A6704F00AFCEF
:1037B80000287FF4E4AEB8F1000F50D00020DFE617
:1037C800DC0E002400500052612341F288320EA919
:1037D80020460E9304F08AFA00287FF4D0AE41F216
:1037E800883202A9204604F069FB00287FF4C7AE9E
:1037F800BDF808300625259041F2883223F0780379
:10380800219029901CA943F0400322961C95ADF8FD
:103818000830CDE92300CDE92700204604F066FAF8
:1038280000287FF4ACAE102601272046022502248A
:1038380041F2883308AA1CA9CDF870A0CDF894905D
:10384800CDE90A6700264FF48007CDE90845CDE9A0
:103858000C6704F0B7FB00283FF4EEAE8FE6EB24CC
:10386800A0264FF4005706251C9400244FF08050E2
:1038780000234FF480784FF4406929900EAA1CA9C0
:103888000C48CDE91E67CDE920454FF440464FF07E
:10389800407700240025CDE92733CDE92289CDE9F9
:1038A8002467CDE90E4504F001FC003818BF01205B
:1038B80066E600BFDC0E00243E4B02682DE9F047A7
:1038C8009A428CB04FF00005CDE90755CDE909556E
:1038D8000B9502D00CB0BDE8F087374B022637496C
:1038E80005AFD3F8D420B146DFF8D4A04FF00308D1
:1038F80042F48042C3F8D420D3F8D42002F48042A2
:103908000092009AD3F8E02042F04002C3F8E02089
:10391800D3F8E02002F040020192019AD3F8E020A7
:1039280042F02002C3F8E020D3F8E02002F02002A1
:103938000292029AD3F8E02042F01002C3F8E02085
:10394800D3F8E02002F010020392039AD3F8E020A3
:103958003243C3F8E020D3F8E03033400493049BAB
:1039680003C90590ADF81810DAF85040344402360F
:10397800204600F0ABFD034620461C4600F0AEFD95
:1039880017F8013B024607A920460B93CDE9072902
:10399800CDE9095802F078FD0E2EE5D100225C2011
:1039A800114601F01FFC5C2001F056FC0CB0BDE88C
:1039B800F08700BF00500052004402589CB700082E
:1039C800DC0E0024124B02689A4200D07047114A5C
:1039D800D2F8D43070B523F4804302250E4EC2F8D5
:1039E800D430346D2C440235204600F06FFD034678
:1039F80020461C4600F072FD0146204602F068FE93
:103A08000E2DEED15C20BDE8704001F033BC00BF44
:103A18000050005200440258DC0E0024014804F013
:103A2800CDBB00BFDC0E0024F8B5036871B9026A8B
:103A380000F1280500F5AC74012A0CBF00224022D1
:103A48008BBB1D495723C0F858110DE0426A00F19D
:103A5800C00500F5E874012A0CBF00224022EBB132
:103A680016495A23C0F8D01100214FF480504FF462
:103A780080674FF4804663604FF40033A2604FF4D0
:103A88008072E16061622362C4E90470C4E906627D
:103A9800204601F009FE58B1FFBEFEE70849582349
:103AA800C0F8D011E0E707495923C0F85811DBE7FF
:103AB800C5E92044A563F8BD10000240700002402B
:103AC80028000240580002402DE9F043831D0546B6
:103AD8008BB0041D05F10A01083005F10C020593AD
:103AE800AB69CDE90640CDE90812002B3DD0EB6962
:103AF800B3FA83F84FEA58180222012305AE0AAF39
:103B08004FF006090192CDE9023356F8044B2B79A0
:103B18002278934216D02B68F3B1012B02D1F2B16F
:103B28000A230493204600F0D9FC0346204600935C
:103B380000F0CCFC694602F0A7FCBE42E5D10BB010
:103B4800BDE8F083697963789942E4D1B8F1000F50
:103B5800F3D02B68002BE0D1CDF81090E2E7637822
:103B6800022B14BF0A230823DBE74FF00108C3E741
:103B7800474A0368934230B5044689B055D020328D
:103B8800934252D0434A934204D02032934201D008
:103B980009B030BD404D4148D5F8E03043F001034D
:103BA800C5F8E030D5F8E03003F001030393039B38
:103BB800D5F8E03043F00803C5F8E030D5F8E03038
:103BC80003F008030493049BD5F8E03043F0400366
:103BD800C5F8E030D5F8E03003F040030593059BC5
:103BE800D5F8F03043F40003C5F8F030D5F8F030DC
:103BF80003F400030693069BFFF766FFD5F8D83059
:103C0800216843F00103234A2448C5F8D830891AAB
:103C1800D5F8D83018BF012103F001030793079B9B
:103C280009B0BDE83040FFF7FFBE1B4D1C48D5F872
:103C3800E03043F01003C5F8E030D5F8E03003F089
:103C480010030093009BD5F8F03043F48003C5F8C7
:103C5800F030D5F8F03003F480030193019BFFF7AF
:103C680033FFD5F8D830216843F00103084A0C48DF
:103C7800C5F8D830891AD5F8D83018BF012103F013
:103C880001030293029B09B0BDE83040FFF7CCBEA8
:103C980004580140045C0140004402588C1100247F
:103CA800300F0024014802F08FB800BF88100024AC
:103CB800014802F089B800BF00110024014802F051
:103CC80083B800BFE4120024014802F07DB800BFA9
:103CD8005C1300241A4A0368934210B40BD02032B4
:103CE800934208D0174A934216D02032934213D0F9
:103CF8005DF8044B7047144B0022D3F85442C3F8C4
:103D08005822002CF4D0D3F84802D3E99312234662
:103D18005DF8044B520818470B4B0022D3F8B04407
:103D2800C3F8B424002CE3D0D3F8AC24D3F8A814F7
:103D3800D3F8A404520823465DF8044B184700BF83
:103D480004580140045C0140300F0024184A0368FD
:103D5800934210B40BD02032934208D0154A9342B4
:103D680017D02032934214D05DF8044B7047124BA1
:103D7800D3E994245208C3F85822002CF4D0D3E98C
:103D88009201234601EB820100EB82005DF8044BAF
:103D98001847094BD3F8AC24D3F8B0445208C3F8F9
:103DA800B424002CE0D0D3F8A814D3F8A404E8E78E
:103DB80004580140045C0140300F0024000000005A
:103DC8002DE9F04F0C684FF41778DFF8D09185B0E3
:103DD80008FB04F8012C09EB080CC0F800C000F33C
:103DE80097804FF0000A0E460F466546CCF850A261
:103DF800CCE992AA0FCE0FC50FCE0FC563A3D3E9A6
:103E0800002364A1D1E90001CDE9022304AB03EB4F
:103E18008403CDE9000153F8102C53F8083C96E8C8
:103E28000300CCF82820CCF8C0303B6985E80300B3
:103E3800042B0CD8DFE803F0707A848E03004FF46B
:103E480017734F4A03FB04939A64C3F8E020BA69D6
:103E5800002A43D03A6A4FF417730121002A03FB62
:103E680004930CBF02220322C3E90B21FA69002A3A
:103E780041D1796A4FF41773003903FB049318BFD3
:103E88000121C3E931127B69022B05D83D493E4A1D
:103E980011F803A052F823B04FF41772002508F167
:103EA8002800022302FB049459464844524665649C
:103EB8006563E565C4F8DC50C4F8CC50C4F8F45028
:103EC800C4E90F55C4E91555C4E93555C4E93B554E
:103ED80006F0ECF9002847D0FFBEFEE7396A4FF438
:103EE8001773003903FB049318BF0121C3E90B12B0
:103EF800FA69002ABDD07A6A4FF417730121002AA3
:103F080003FB04930CBF02220322C3E93121BAE761
:103F1800012005B0BDE8F08F4FF417734FF4FA5243
:103F280003FB04939A64C3F8E02090E74FF41773F7
:103F38004FF47A5203FB04939A64C3F8E02086E7AF
:103F48004FF417734FF4FA4203FB04939A64C3F8CF
:103F5800E0207CE74FF417734BF6803203FB0493A1
:103F68009A64C3F8E02072E708F1C0005246594647
:103F78000223484406F09AF90028CAD0FFBEFEE79B
:103F880000770100A4B70008A8B70008245801402A
:103F9800245C014004580140045C0140300F0024B7
:103FA8000068704770B50468154682B00E46226AEC
:103FB8000698012AC4F848129AB2C4F85402C4E90F
:103FC800935311D0294604F12800019206F030FAE3
:103FD800636A019A012B10D0294604F1C00006F04B
:103FE80027FA002002B070BD04F12800019206F003
:103FF800B1FA636A019A012BEED1314604F1C0008F
:1040080006F0A8FA002002B070BD00BF03681B6963
:10401800042B05D8044A02EB830393ED000A70478A
:104028009FED020A704700BFB4B7000800803B4705
:104038000368D3F85802704738B513484FF4800224
:10404800124B4FF4003507244FF0804103600023E2
:1040580042604FF0005241638365C0E90254C0E9F1
:104068000433C0E90833C0E90A33C0E90E33C0E9B4
:104078001033C0E91233C0E91433C0E9062206F050
:1040880035FC00B1FFBE38BDE81300240030014004
:104098006423024892B206F0DDBC00BFE813002496
:1040A800324A0023016810B5914288B00493039303
:1040B8000793CDE9053301D008B010BD2C4B044659
:1040C800D3F8F02042F48052C3F8F020D3F8F0205F
:1040D80002F480520092009AD3F8E02042F00202E3
:1040E800C3F8E020D3F8E02002F002020192019A1E
:1040F800D3F8E02042F04002C3F8E020D3F8E030E3
:10410800826803F04003B2F5003F0293029B29D076
:10411800B2F5802F23D11023039302200023052218
:1041280003A9049013480792CDE9053302F0ACF9CE
:10413800A3694FF40062B3F1806F039202D04FF489
:104148004063039300230522022403A90A48CDE90A
:104158000443CDE9063202F097F908B010BD3023C8
:104168000393DAE720230393D7E700BF0030014029
:10417800004402580004025800180258F0B5194BC0
:10418800C827194E02224FF0804403F10C05002184
:10419800002089B09A60DC60802200245A62019471
:1041A800C3E900674FF0FF360027C3E90401C3E9FC
:1041B80006672846CDE90444CDE90644CDE9024422
:1041C80006F0DEFD4FF4805304A92846049306F058
:1041D8008BFE01A928460194039406F043FF09B019
:1041E800F0BD00BF70140024400D0300014806F024
:1041F8005FBE00BF7C140024034BDA68516A536A1F
:104208005B1A8342FBD3704770140024054A136875
:10421800D26803FB00F0516A536A5B1A9842FBD8D4
:10422800704700BF701400240368B3F1804F00D0BA
:104238007047084B82B0D3F8E82042F00102C3F877
:10424800E820D3F8E83003F001030193019B02B0A2
:10425800704700BF004402582DE9F04FCFB04C2200
:1042680000210AA807F024F92022002102A807F05B
:104278001FF9BC2200211EA807F01AF9022003F03A
:1042880093FB514A0021514B01911846D16A21F004
:104298000101D162D26A02F0010201929A6942F4E4
:1042A80040429A619B6903F440430193019B8369EF
:1042B8009B04FCD5464A022421204FF48031936A9E
:1042C8000126042523F0030323439362C82308220D
:1042D8001096169300231794199415951C93CDE9FD
:1042E8000A0105210AA8CDE913441891CDE91A233A
:1042F80004F06CF800B1FEE73F26032700220823EC
:1043080002A82146CDE90267CDE9042340264023CF
:104318004FF480624027CDE90823CDE9066704F011
:1043280091FB034600B1FEE780220A2602270025FA
:1043380034924FF4807233948024439200224FF0D9
:1043480054084FF008091EA8CDE93B334FF48053B9
:1043580035934FF4803346930623CDE92267CDE9A0
:10436800244540F22716102704242025CDE92623CA
:104378004FF480620023CDE92867CDE92A45CDE9CD
:104388002C230FF23C0BDBE900AB002602270024AC
:10439800002500224FF44013CDE91EABCDE920895A
:1043A800CDE92E67CDE93045CDE93E2304F072FD15
:1043B80000B1FEE703F01EFB4FB0BDE8F08F00BF71
:1043C80009130F03040000000004005800480258B5
:1043D8000044025808B500F0DFF8BDE8084000F0D6
:1043E800C1BF00BFFFBE704770B584B0012500F0A3
:1043F800A5F80024FFF730FF00F068FF4FF04051A8
:104408002F4A4FF4807368460191ADF80050CDE90A
:10441800022300F07DFF40F2011119224FF04043C2
:104428006846ADF80E108DF8082001938DF80150FC
:104438008DF80D408DF80A4000F06AFF042000F066
:1044480055FF06F0E7FEFEF7F9FEBFF34F8FBFF307
:104458006F8F1C4BC3F85042BFF34F8FBFF36F8F62
:104468005A6942F400325A61BFF34F8FBFF36F8F1E
:10447800C3F88440BFF34F8FD3F8801043F6E0743D
:10448800C1F34E32C1F3C901520102EA04050846DC
:1044980045EA80760138C3F86062461CF8D1203AB4
:1044A80012F1200FF1D1BFF34F8F5A6942F48032D5
:1044B8005A61BFF34F8FBFF36F8F04B070BD00BF59
:1044C8000E00010300ED00E000F078B8024B02781E
:1044D80053F82200704700BFE8B70008024B427843
:1044E80033F81200704700BFC8B70008704700BF14
:1044F8000F4B1B780BB90120704710B504464FF4D9
:104508007A700C4AB0FBF3F31068B0FBF3F000F0DC
:10451800C5FE0F2C00D808B1012010BD002221468D
:104528004FF0FF3000F05EFE034B00201C6010BD12
:104538000C000024040000241000002470B5124C64
:10454800032000F03BFE114E04F0DCF9A26910498B
:104558000346C2F303220F200E4D8A5C02F01F02AD
:10456800D3403360A26902408A5C02F01F02D34044
:104578002B60FFF7BDFF10B10124204670BD044633
:10458800FFF7B4FF204670BD004402580400002421
:10459800F8B6000808000024034A044B11681B7889
:1045A8000B441360704700BFBC1400240C000024A7
:1045B800014B1868704700BFBC14002438B5044686
:1045C800FFF7F6FF0546631C02D0044B1B781C441A
:1045D800FFF7EEFF431BA342FAD338BD0C000024BB
:1045E800014B1868000C70470010005C704700BF52
:1045F800806B08B5FEF7D8FA08BD00BF704700BF4A
:10460800836B5A6D12F0500F5A6D10B51DD1196891
:1046180042F400725A650A6812F0080FCA681BD083
:1046280012F4406F0DD1CA6894040AD45A6D22F46A
:1046380080725A655A6DD10403D45A6D42F0010252
:104648005A651846FFF7D2FF10BDD2060AD4DB6CB4
:10465800BDE81040DB6C18479007E7D01846FFF715
:10466800C5FFF1E71846FFF7C9FF10BD806B08B515
:10467800436D43F040034365836D43F00403836552
:10468800FFF7BCFF08BD00BFF0B5002283B0019260
:1046980090F85020012A00F01B81034601201A6877
:1046A80083F850009468660700F189800C68C4F3A9
:1046B8001305002D40F08E80C4F3846C00FA0CF0D2
:1046C8004C681F26D569A7093440284302F13005F4
:1046D80007F00C07A640D0610CFA04F4785920EAD8
:1046E8000600204378519068450771D4956815F005
:1046F800080548D10C6802F1140607208F684FEAB4
:10470800D45CC4F304540CF0040C00FA04FE07FA59
:1047180004F4C64F5CF8060020EA0E0020434CF86B
:104728000600386800F07040B0F1805F00F0C88083
:10473800D068D66810F0100F486940F0E980C6F3D9
:104748008206760000FA06F60F69042F00F0C3808F
:1047580002F16004086854F827C000F0F8400CF033
:10476800004C40EA0C00304344F827000E694F7EA5
:1047780054F82600012F20F0004008BF4FF00045F4
:10478800054344F826509068C40716D4CE680868D4
:1047980006F01807A64CD2F8C050FC40C0F3130727
:1047A800DFF8B8C2044025EA0705664544EA05046F
:1047B800C2F8C04046D0002816DB002003E05A6D3E
:1047C80042F020025A65002283F8502003B0F0BD61
:1047D8009068D8E794FAA4F5B5FA85F5C4F3846C23
:1047E80005F01F04A0406BE792498A4200F0B680AA
:1047F80001F580718A4200F0B1808F4E8F4DA96813
:10480800B46801F0E076E44304F00104002C00F001
:10481800B3808B4CA04200F0E6808A4CA04200F0A6
:104828001F81894CA042C8D14902C6D482498A4214
:10483800C3D1AA68002022F0E072324342F4800219
:10484800AA60C0E7002F69D090FAA0F4B4FA84F403
:10485800013404F01F04092C00F2A38090FAA0F49C
:10486800B4FA84F490FAA0F50126B5FA85F5013476
:104878003544A40605F01F0504F0F84406FA05F5CA
:104888002C4390FAA0F0B0FA80F0304400F01F00FA
:1048980000EB400000052043C70D02F11405C0F3EA
:1048A80004504FF0070C07F004078E680CFA00FC60
:1048B8007C59864024EA0C003043785108687AE72E
:1048C800D6684869C6F38206760000FA06F63BE722
:1048D800022003B0F0BD106E0D6800F0F840AC0681
:1048E800B0EB856F30D0506E00F0F840844226D08F
:1048F800906E00F0F84084422BD0D06E00F0F84063
:1049080084427FF440AFD06E20F00040D0663AE792
:10491800760806F0080600FA06F615E7800E441C2D
:1049280004F01F06092E2DD8A406012506EB460023
:1049380004F0F84405FA06F600053443ABE7506E78
:1049480020F000405066D3E7106E20F0004010665B
:10495800C9E7906E20F000409066CEE73B49354E9F
:104968003B4C0D468968B768A46801F0E0763C4383
:10497800E44304F0010449E75A6D012042F02002A3
:104988005A6520E706EB46000127A5061E3807FAF8
:1049980006F605F0F8450005354340F00070284359
:1049A8007AE790FAA0F5B5FA85F590FAA0F4012611
:1049B800B4FA84F401353444AD0604F01F0405F05C
:1049C800F84506FA04F4254390FAA0F4B4FA84F4FE
:1049D800344404F01F0404EB4404A4F11E00000551
:1049E80040F00070DBE708023FF5E7AE12498A4263
:1049F8007FF4E3AE174AA9681268174821F0E071FE
:104A080092093143A0FB020241F400019209A96016
:104A180052000192019A002A3FF4CFAE019A013A5E
:104A28000192019A002AF9D1C7E600BF0010005C84
:104A3800FFFF0F0000200240006002580063025888
:104A4800000084CB000052C70000B8CF002302400A
:104A58000021024004000024632D3E050000FF47AA
:104A680011F080707FF4A9AE05498A427FF4A5AEA3
:104A7800AA6822F0E072324342F08072AA60A2E68D
:104A88000060025803689A68D20701D50020704771
:104A98009968214A114270B504462AD199681F4A7B
:104AA8000A4042F001029A60FFF782FD23681C4A1F
:104AB8000546934226D002F58072934222D0194AC5
:104AC8009268164E0AE09A68324042F001029A60F3
:104AD800FFF76EFD401B02280BD823681A68D2071F
:104AE80017D49A68D107EED5FFF762FD401B02285C
:104AF800F3D9636D012043F010036365A36D03438D
:104B0800A36570BD084A9268D006DAD0074A934276
:104B1800D7D1002070BD00BF3F000080C0FFFF7FDD
:104B28000020024000630258002302400021024096
:104B38002DE9F0413B4D044600680F461646A84251
:104B480019D0394B984216D0384DAB688068420767
:104B580016D494F85020012A12D003F01F0801231C
:104B6800B8F1090F84F850300DD90023012084F8DA
:104B78005030BDE8F0812E4DAB6880684207E8D51B
:104B88000220BDE8F08140F2212323FA08F3DB4339
:104B980013F00105E9D12046FFF774FF00283AD148
:104BA800626D244B2568134043F480736365B8F144
:104BB800000F02D01C4B9D4203D0636D23F4801379
:104BC8006365636D13F4805329D0A36D23F0060346
:104BD800A365E06C4FF0000CDFF868E033463A4616
:104BE8001C21154F154EC0F83CE00764C6642960C7
:104BF80005F1400184F850C06E6846F010066E60FA
:104C080000F01CFF22680E4B91680B4043F0040330
:104C18009360BDE8F08184F85050BDE8F081A36549
:104C2800D7E700BF0020024000210240006302587D
:104C380000230240FEF0FFFFF94500087546000812
:104C4800C0FFFF7F0946000838B503689A689107D6
:104C580002D59B68002038BD9A68D20723D59A6888
:104C6800044602F00D02012A08D0636D012043F0CA
:104C780010036365A36D0343A36538BD98680321DA
:104C88000A4A024042F002029A601960FFF790FC5B
:104C9800054604E0FFF78CFC401B0228E5D8236892
:104CA8009B68DB07F6D4002038BD00BFC0FFFF7F3C
:104CB80038B55A4A04460368934249D002F58072CF
:104CC800934245D0564B9B6813F4403F14BF0123D1
:104CD8000023EBB103F0D0FF63680546B3F5003F4E
:104CE80000F08B80B3F5403F73D0B3F5803F00F000
:104CF8008480FFF775FC41F2030398421FD8494BA3
:104D08009D4260D92268936843F48073936038BDEC
:104D18004FF4002005F036F863680546B3F5101F18
:104D280075D01DD9B3F5201F5BD0B3F5301FE0D186
:104D3800FFF756FC41F20303984244D92D0A3A4B37
:104D48009D422ED82268936823F44073936038BD3F
:104D5800364B9B6813F4403F14BF01230023B8E788
:104D6800B3F5E01F3FD004D9B3F5001FC1D1450901
:104D7800BFE7B3F5801F06D00AD9B3F5A01F02D04C
:104D8800B3F5C01FB5D19B0C5B00B5FBF3F5B0E7DD
:104D9800B3F5002FF7D023F40022B2F5802FF2D01C
:104DA800A7E7234B234A2B4493421ED9224B234A7D
:104DB8002B449342226893682BD823F4407343F41E
:104DC8000073936038BD2268936823F480739360FE
:104DD80038BD8508FFF704FC41F203039842AED8BA
:104DE8008DE7C50985E7050983E72268936823F4F9
:104DF800407343F48073936038BD1B0CB5FBF3F527
:104E0800FFF7EEFB41F20303984298D877E785094C
:104E18006FE743F44073936038BD00BF0020024041
:104E280000630258002D3101105E5F00002302402C
:104E3800EFA1A0FF0F5E5F00DF4341FF1FBCBE0074
:104E480070B5002382B00193002800F0CF80456D33
:104E58000446002D00F0B980226893689D0003D5B0
:104E68009168704B0B4093609368D80015D46E4BD3
:104E780090681B686D4D9B096D49A5FB0353014064
:104E88009B0941F0805191600193019B2BB1019BDB
:104E9800013B0193019B002BF9D19368D90024D4DD
:104EA800636D012543F010036365A36D2B43A36570
:104EB800936813F0040F636D1DD1DB061BD4636D7B
:104EC80023F4817343F0020363659368DE0728D4F3
:104ED800584B9A4217D003F580739A4213D0564B19
:104EE8009B68D9071DD4554A15E09368002513F02F
:104EF800040F636DE1D0636D012543F0100328466C
:104F0800636502B070BD4B4A4D4B92689B68134372
:104F1800D80706D44B4A9368616823F47C130B4383
:104F28009360FFF75DFB41F20303A1689842237F7A
:104F380051D8667D1A04206B42EA463202430A437E
:104F4800012B03D1236A013B42EA4342636A23B13E
:104F580003F47873A16A0B431A4323683A49D86863
:104F680001400A43DA609A6812F0040F9A681CD16B
:104F780012071AD4D968354A207D0A40E16A42EA04
:104F880080320A43DA6094F83820012A3AD01A6944
:104F980022F001021A611A692046616B22F0704200
:104FA8000A431A61FFF784FE2368E268012A21D0C8
:104FB8001A6B22F00F021A63636D284623F003036D
:104FC80043F00103636502B070BDFDF7A1FDA5655F
:104FD80084F8505040E71029ABD1607D1A04216B4A
:104FE80042EA40320A4342F01C02A9E7012528465A
:104FF80002B070BD196BA26921F00F01013A0A4392
:105008001A63D9E71869124ED4E910210640A06C3A
:105018000A43E16B3243024342EA014242F0010291
:105028001A61B8E7C0FFFF5F04000024632D3E0546
:10503800C0FFFF6F00200240006002580063025862
:10504800002102400023024003C0F0FFFCBFFFFF25
:105058001EF800FCF0B50D4690F8501083B00026FD
:10506800012901963ED001230446174680F85030A6
:10507800FFF7EAFD636DE0B91C4E07F08042216836
:1050880005F480351E401A4B1A4F46F00206666535
:105098008E68334013432B4343F000438B608B6887
:1050A800002B0EDB636D23F0030343F001036365FC
:1050B80002E043F010036365002384F8503003B026
:1050C800F0BD019B01330193019BBB42E7D9636D9E
:1050D8000022012023F0120384F8502043F010032B
:1050E8006365ECE7022003B0F0BD00BFFDEEFFFFF3
:1050F800C0FFFE3FFF955A55F0B490F850200E6857
:10510800012A49D00346294A01201C6883F8500027
:10511800944208D05A6D002142F0200283F85010C2
:105128005A65F0BC7047224DAA6852070AD5A26892
:105138005A6D012042F020025A65002283F850205F
:10514800F0BC7047A06810F00400F1D1C6B1DFF8D8
:1051580068C04F68DCF8082022F440423A43CCF893
:105168000820A468AA682243D40713D48A68DCF804
:1051780008401049164321400E43CCF80860DCE78C
:105188000D498A6822F440428A60A068AA680243EE
:10519800D00704D50020D0E70220F0BC70478C6807
:1051A8003046044A22408A60C7E700BF0020024018
:1051B80000210240E0F0FFFF0023024007490002FF
:1051C800074BCA6800F4E06010B44FF6FF042240B1
:1051D8005DF8044B10430343CB60704700ED00E0DB
:1051E8000000FA05194BDB68C3F3022330B4C3F19E
:1051F80007051C1D042D28BF0425062C19D9033BBF
:105208004FF0FF349C4022EA04024FF0FF3400289C
:1052180004FA05F421EA040101FA03F141EA020162
:105228000ADB09010A4BC9B2034483F8001330BCF6
:10523800704700221346E8E700F00F000901054B0C
:10524800C9B20344197630BC704700BF00ED00E0D6
:1052580000E100E0FCEC00E0002807DB00F01F01A3
:1052680001234009024A8B4042F82030704700BFB2
:1052780000E100E000280DDB4309012200F01F00D7
:105288000549203302FA00F041F82300BFF34F8F9D
:10529800BFF36F8F704700BF00E100E00138B0F145
:1052A800807F0DD2074B0022072130B4F025064C31
:1052B8005860104684F823509A60196030BC7047D3
:1052C8000120704710E000E000ED00E0BFF35F8FC1
:1052D800044A00200449536A23F480335362486027
:1052E800704700BF00ED00E090ED00E0064A40F096
:1052F8000100064B5860536A43F480335362BFF38E
:105308004F8FBFF36F8F704700ED00E090ED00E026
:10531800124A437893600178E9B1436870B4D36066
:10532800C37A047B1B06857A867B43EA0473447B35
:105338000B43017A43EAC543C57B43EA8443447A75
:1053480043EA464343EA054343EA042343EA410365
:1053580070BC13617047D1601161704790ED00E037
:10536800704700BF08B5FFF7FBFF08BD88B110B54F
:105378000379044603F0FF023BB100230221012216
:10538800217118462361227110BD4271FDF79CFC02
:10539800F3E70120704700BF4379D1F800C0012B23
:1053A80000F096800223BCF1040F2DE9F041164667
:1053B8004FF0010204460D46427103713ED006F0DB
:1053C80010020368296901292ED0EE680727A96809
:1053D80007FA02F0DF6B31436D6827EA000740F6F1
:1053E800FE7641EA0C014FF480409540964091408A
:1053F80090404FF0000C3943C027D96307FA02F1F7
:105408001A68012722EA000260461A601A6822EA2E
:1054180006022A431A601A6822EA01021A602771F2
:1054280084F805C0BDE8F0811F26986B696996402D
:10543800914020EA060001439963C6E7D6B9FFF711
:10544800B7F8DFF89080074604E0FFF7B1F8C01B13
:10545800012834D823685B6B13EA080FF5D10120C3
:10546800FFF7ACF82368AA691A640DE0FFF7A0F803
:10547800012824D823685B6B002BF7DB0120FFF79A
:105488009DF82368AA695A6406F0100240F2FF3CAE
:10549800986CFF21EF690CFA02FC01FA02F6296AFE
:1054A80020EA0C009740D5F800C03843986401FA08
:1054B80002F0D96C21EA06010143D96482E7236925
:1054C800032243F00803104623612271BDE8F081EE
:1054D80002207047008000200268354B354930B4FF
:1054E800354C364DA24218BF9A4204F148040CBF0D
:1054F800012300238A4208BF43F001034831AA422E
:1055080008BF43F001034835A24208BF43F0010336
:1055180048348A4208BF43F0010301F56271AA4288
:1055280008BF43F0010305F56275A24208BF43F0C6
:10553800010304F562748A4208BF43F0010348314D
:10554800AA4208BF43F001034835A24208BF43F00E
:10555800010348348A4208BF43F001034831AA4294
:1055680008BF43F00103A24208BF43F001038A4287
:1055780008BF43F0010313B9114B9A4213D1D3B2B8
:105588001049114C103BA1FB03515F2B0F4BC1F38A
:10559800021103EA0203615C88BF0433C1658365B5
:1055A800184630BC704722F0FF038365F8E700BF58
:1055B800100002404000024028000240580002400B
:1055C800B8040240ABAAAAAA18B8000800FCFFFF5A
:1055D8000368294A294930B4294D2A4CAB4218BFDF
:1055E800934205F13C050CBF01220022A34208BFEB
:1055F80042F001023C348B4208BF42F001023C31C8
:10560800AB4208BF42F00102A34208BF42F00102C8
:105618008B4208BF42F0010212B91B4A934213D1D0
:10562800DBB21A4D1A4A0121083B1A4CA5FB035359
:10563800446602EB1312C3F30413920001FA03F356
:105648000266836630BC7047DAB21349134C1944BA
:10565800103AA829A4FB02234FEA131300D80833F1
:105668000F4A03F01F0501210E4C1A44A940446655
:10567800920081660266E5E70854025844540258CD
:105688001C5402583054025894540258CDCCCCCCF7
:105698000096001680580258F0FBFDBFABAAAAAAD4
:1056A8000082001080080240F8B50446FEF780FF2B
:1056B800002C00F0DC8023680546974A934249D0C5
:1056C8001832934246D0303294489549834218BFE5
:1056D800934200F148000CBF012200228B4208BF10
:1056E80042F001023031834208BF42F001023030FB
:1056F8008B4208BF42F0010201F55C71834208BF8A
:1057080042F0010200F55C708B4208BF42F00102D2
:105718003031834208BF42F0010230308B4208BF6B
:1057280042F001023031834208BF42F001023030BA
:105738008B4208BF42F001023031834208BF42F079
:1057480001028B4208BF42F001021AB9754A93421E
:1057580040F0FC800222002184F8352084F83410BF
:105768001A6822F001021A6005E0FEF721FF431BC8
:10577800052B57D823681A68D107F6D4D4E9022133
:1057880020690A431F68D4E9051602430A4366499B
:10579800D4E90705324339400243606A2A430428A2
:1057A80041EA020145D019605A6922F00702104304
:1057B80058612046FFF790FEE26D3F2302F01F027A
:1057C800934083602046FFF703FFA368802B18D01F
:1057D8006368256EDAB2013BD4E91910072B2A60F9
:1057E800486015D8501E072843D9626FD4E91B3189
:1057F80000201860002001234A60606584F8353075
:10580800F8BD0023A16ED4E91802636003605160FB
:1058180000230020C4E91B3363670123606584F813
:105828003530F8BD202203230120626584F8353025
:10583800F8BDD4E90B50A26A28430143196058699E
:1058480020F00700104340F00400002DB0D0002ED7
:1058580045D1012A5AD032F00202A9D1EA01A7D5CE
:10586800012340221846626584F83530F8BD0120CE
:10587800F8BD21682D4B2E4E2E4DB14218BF9942CE
:1058880006F128060CBF01230023A94208BF43F0F4
:1058980001032835B14208BF43F001032836A94265
:1058A80008BF43F001032835B14208BF43F00103A4
:1058B800A94208BF43F001033BB91F4B994204D0EA
:1058C8001E4B1F4913449B0003E01E4B1E49134403
:1058D8009B0001228240C4E91B31626788E7B6F564
:1058E800005F04D0022ABBD9032AB7D060E7032A95
:1058F8003FF65EAF01A151F822F000BF69580008D9
:10590800655800086958000815590008B5F1C07FA6
:105918007FF44EAFA4E700BF1000024040000240F1
:1059280070000240B80402403F8010FE085402583C
:105938001C54025830540258945402583F820010A4
:10594800400902403F96001640590258334A3449EC
:1059580034488B4218BF934201F12801324D0CBFE5
:1059680001220022834208BF42F001023C308B42F0
:1059780008BF42F001023C31AB4208BF42F00102CD
:10598800834208BF42F001028B4208BF42F0010285
:1059980012B9264A93423AD102220021244F84F8B0
:1059A8003520A26884F83410402A196807EA0107EC
:1059B8002BD0802A0CBF4FF4804100212269204659
:1059C800E668D2086569DFF870C042EAD602A669BF
:1059D80042EAD502E56942EAD602164E42EAD50203
:1059E8001E44256A42EA1512ACFB06653A432D09A6
:1059F8001143AD001960E565FFF76EFDE26D012307
:105A080002F01F0293404360DCE61021D6E74022F3
:105A180003230120626584F83530F8BD0854025824
:105A28001C5402583054025858540258945402587E
:105A38000F00FEFFF8ABFDA7CDCCCCCC002800F0C2
:105A4800C1802DE9F041054690F83400012800F0A6
:105A5800BB80012095F83540844285F8340007D092
:105A680000224FF4006385F834206B65BDE8F081AF
:105A78002E6802277D4C7E48DFF808C2864218BF90
:105A8800A64200F1300085F835704FF000070CBFD2
:105A9800012400246F65664508BF44F001040CF139
:105AA800300C744F864208BF44F00104303066451C
:105AB80008BF44F001040CF5627C864208BF44F03C
:105AC800010400F56270BE4208BF44F00104483783
